:100000000C943E000C9450000C9450000C94100280
:100010000C9450000C9450000C9450000C947B02F3
:100020000C9450000C9450000C9450000C94500010
:100030000C9450000C94E5010C943E020C9450007A
:100040000C9450000C9450000C9450000C945000F0
:100050000C9450000C9450000C9450000C945000E0
:100060000C94FE000C9450000C9450000C94500022
:100070000C9450000C9450000C94500011241FBE9E
:10008000CFEFCDBFDFE3DEBF28E3A0E0B8E301C0E0
:100090001D92AD31B207E1F70E947F030C945B041F
:1000A0000C9400009627092E0294602D6F7069272A
:1000B000292F2025220F207E6227202D2927207F0F
:1000C0002695092E000C221F9695969596959F7160
:1000D00092279827862F08958093060681E08093C3
:1000E0000B06809308068FEF90910B0690FF05C0DA
:1000F000809110069091110608958150A9F781E032
:100100008093083890E080E00895E0E1F8E086E030
:10011000828711868CEC838783E08093260484E5B4
:100120008487168681EE8187089588E0809316047F
:1001300080E483B9E0E5FAE010821286138681E05C
:100140008683808380931638089580E483B989E09C
:1001500080931604169B0C9495000895E0E0F6E059
:100160001082118281E5828380E28383158210925E
:10017000A00008951F93CF93DF931092083810E3E7
:100180001093250481E08093000687E38A95F1F7B8
:1001900000C088E00E946C0080930438909305387A
:1001A00085E00E946C00EC01809302389093033844
:1001B00087E00E946C0010932604109200062091A4
:1001C0000838222321F0109204381092053820912B
:1001D0000438309105383370209304383093053853
:1001E000D370C0930238D093033893708093003853
:1001F00090930138DF91CF911F9108951F920F9234
:100200000FB60F9211242F933F934F935F936F93E9
:100210007F938F939F93AF93BF93CF93EF93FF936E
:1002200080911B0820910638309107382F3F320704
:1002300031F02F5F3F4F209306383093073883FF0C
:100240001BC00E9485001092400A81E08093460AFC
:1002500010921738FF91EF91CF91BF91AF919F917D
:100260008F917F916F915F914F913F912F910F905F
:100270000FBE0F901F90189586FF6CC080FF66C060
:100280001092400A10924A0A10924B0A91E0909301
:10029000460A9093400A9093173881FF55C00E94F8
:1002A000BA0090911B389F5F90931B3883EC80932A
:1002B0000D383091183880911C388295807F806489
:1002C00021E0311101C020E0822B80930E38809113
:1002D0001D3880930F3880911A388295807F209145
:1002E0001938822B8093103890931138209104385C
:1002F00030910538C90134E0969587953A95E1F734
:100300008093123880910238909103382295207F93
:10031000AC0166E0569547956A95E1F7242B20934A
:1003200013389091003820910138880F880F822B64
:10033000809314389093153810920A388FEF9FEFFE
:1003400080930B3890930C3883E00FC082E0809349
:100350001A0879CF87FF7ECF81FF34C0C0910A3859
:10036000CC2341F084FF04C082E080931A0872CF4E
:10037000C930D0F4EC2FF0E0E35FF74C608160937C
:100380001D0883E080931A08C930C0F480910B38AF
:1003900090910C380E94520080930B3890930C3847
:1003A000CF5FC0930A3856CF60910C38C93039F30B
:1003B00060910B38CA3019F36FEFE1CFCF3F09F4EA
:1003C00049CFEECF80911D08BFCF1F920F920FB67D
:1003D0000F9211242F933F934F935F936F937F93CB
:1003E0008F939F93AF93BF93EF93FF930E948500EA
:1003F000E0E4FAE0108281E0868310921738FF91E2
:10040000EF91BF91AF919F918F917F916F915F918C
:100410004F913F912F910F900FBE0F901F90189505
:100420001F920F920FB60F9211242F933F934F9369
:100430005F936F937F938F939F93AF93BF93EF934C
:10044000FF938FEF83B980911838811106C0809196
:100450001638811102C00E949500FF91EF91BF9163
:10046000AF919F918F917F916F915F914F913F914C
:100470002F910F900FBE0F901F9018951F920F9203
:100480000FB60F9211242F933F934F935F936F9367
:100490007F938F939F93AF93BF93EF93FF931092AC
:1004A000500A81E08093560A1092163890911838BD
:1004B00091110DC016991CC08093183880911A387C
:1004C0008F5F8F7080931A3884E080931604FF91B9
:1004D000EF91BF91AF919F918F917F916F915F91BC
:1004E0004F913F912F910F900FBE0F901F90189535
:1004F0000E94A500ECCF1F920F920FB60F9211240D
:100500002F933F934F935F936F937F938F939F931B
:10051000AF93BF93EF93FF9381E08093530180915A
:100520001838882399F088E08093160426E12A95EC
:10053000F1F70000169B22C01092183880911938EC
:100540008F5F8F70809319380E94A50080910938C1
:100550008F5F8032B8F480930938FF91EF91BF919B
:10056000AF919F918F917F916F915F914F913F914B
:100570002F910F900FBE0F901F90189584E08093DD
:100580001604E4CF1092093880911C08843509F0D4
:10059000AEC080911908813E09F0A9C0809113086E
:1005A0008111A5C0809120048373803309F09FC01E
:1005B0008091000481119BC080911404843009F063
:1005C00096C080911504843009F091C08091170481
:1005D000843009F08CC080913004811188C08091F2
:1005E0003104811184C080911604909118389923A8
:1005F00009F472C0843009F07AC080910206813516
:1006000009F075C080915001813209F070C080916D
:100610004701813009F06BC08091400180FF67C0C5
:1006200080915201813009F062C080916100813176
:1006300009F05DC080912404837309F058C0809153
:100640000006811154C080910306803209F04FC02A
:100650008091050681114BC080910106811147C030
:100660008091010284FD43C08091100181113FC03F
:100670008091130181113BC080911201811137C01B
:100680008091410A811133C08091450A813079F50A
:100690008091510A81112BC08091550A813039F522
:1006A0009091400A20911738211101C080E09813E1
:1006B0001EC09091500A2091163881E0211101C08E
:1006C00080E0981314C080910638909107388137E4
:1006D000974168F4A8950BC090E02091163821113D
:1006E0000BC029E030E08217930709F486CF1092FF
:1006F00006381092073831CF28E030E0F4CF8091EF
:10070000400080934000C82FC17080FFC0C010928D
:100710001C3884E0809311048093130480931404A4
:1007200080931504809312048093170480933204FD
:100730008093330480933404809335048093500471
:100740008093510480935204809353048093360421
:1007500080933704809354048093550480E38093FE
:100760002604809321040E94AE00D0911D38DF5FE3
:10077000CC2309F440C080E18093A00081E4809301
:10078000020680E4809303068FE18093050681E0F2
:1007900080930006C8E00FEF1FEF8EE10E946C000F
:1007A000682FC8010E9452008C01C150B1F710920D
:1007B00000060E94AE000E94BA0060910438F090DA
:1007C0000538C8010E94520060910238C091033878
:1007D0000E94520060910038109101380E9452002E
:1007E0006C2F660F660F1295107F612B6F290E9488
:1007F00052008927D80FD0931D381092410A8AE100
:1008000091E480934C0A90934D0A81E08093450ACD
:100810001092510A24E134E320935C0A30935D0A7C
:100820008093550A809141018111FCCF81E0809332
:100830004701809340018091510180FDFCCF81E010
:100840008093520191E29093500198E090931604A6
:1008500097E39A95F1F700C0169925C08093183850
:1008600084E0809316040E948500A895789481E026
:1008700095E0F89420911738211104C02091163882
:100880002223B1F08093500078948895F2CF81FFB5
:1008900004C081E080931C383CCF83FF02C082E01B
:1008A000F9CF83E0F7CF109218380E94A500DBCF74
:0A08B00090935000E9CFF894FFCFB9
:00000001FF
